{
  "_format": "hh-sol-artifact-1",
  "contractName": "BITS",
  "sourceName": "contracts/BITSToken.sol",
  "abi": [
    {
      "inputs": [
        {
          "internalType": "address",
          "name": "initialOwner",
          "type": "address"
        }
      ],
      "stateMutability": "nonpayable",
      "type": "constructor"
    },
    {
      "inputs": [
        {
          "internalType": "address",
          "name": "spender",
          "type": "address"
        },
        {
          "internalType": "uint256",
          "name": "allowance",
          "type": "uint256"
        },
        {
          "internalType": "uint256",
          "name": "needed",
          "type": "uint256"
        }
      ],
      "name": "ERC20InsufficientAllowance",
      "type": "error"
    },
    {
      "inputs": [
        {
          "internalType": "address",
          "name": "sender",
          "type": "address"
        },
        {
          "internalType": "uint256",
          "name": "balance",
          "type": "uint256"
        },
        {
          "internalType": "uint256",
          "name": "needed",
          "type": "uint256"
        }
      ],
      "name": "ERC20InsufficientBalance",
      "type": "error"
    },
    {
      "inputs": [
        {
          "internalType": "address",
          "name": "approver",
          "type": "address"
        }
      ],
      "name": "ERC20InvalidApprover",
      "type": "error"
    },
    {
      "inputs": [
        {
          "internalType": "address",
          "name": "receiver",
          "type": "address"
        }
      ],
      "name": "ERC20InvalidReceiver",
      "type": "error"
    },
    {
      "inputs": [
        {
          "internalType": "address",
          "name": "sender",
          "type": "address"
        }
      ],
      "name": "ERC20InvalidSender",
      "type": "error"
    },
    {
      "inputs": [
        {
          "internalType": "address",
          "name": "spender",
          "type": "address"
        }
      ],
      "name": "ERC20InvalidSpender",
      "type": "error"
    },
    {
      "inputs": [
        {
          "internalType": "address",
          "name": "owner",
          "type": "address"
        }
      ],
      "name": "OwnableInvalidOwner",
      "type": "error"
    },
    {
      "inputs": [
        {
          "internalType": "address",
          "name": "account",
          "type": "address"
        }
      ],
      "name": "OwnableUnauthorizedAccount",
      "type": "error"
    },
    {
      "anonymous": false,
      "inputs": [
        {
          "indexed": true,
          "internalType": "address",
          "name": "owner",
          "type": "address"
        },
        {
          "indexed": true,
          "internalType": "address",
          "name": "spender",
          "type": "address"
        },
        {
          "indexed": false,
          "internalType": "uint256",
          "name": "value",
          "type": "uint256"
        }
      ],
      "name": "Approval",
      "type": "event"
    },
    {
      "anonymous": false,
      "inputs": [
        {
          "indexed": true,
          "internalType": "address",
          "name": "previousOwner",
          "type": "address"
        },
        {
          "indexed": true,
          "internalType": "address",
          "name": "newOwner",
          "type": "address"
        }
      ],
      "name": "OwnershipTransferred",
      "type": "event"
    },
    {
      "anonymous": false,
      "inputs": [
        {
          "indexed": true,
          "internalType": "address",
          "name": "from",
          "type": "address"
        },
        {
          "indexed": true,
          "internalType": "address",
          "name": "to",
          "type": "address"
        },
        {
          "indexed": false,
          "internalType": "uint256",
          "name": "value",
          "type": "uint256"
        }
      ],
      "name": "Transfer",
      "type": "event"
    },
    {
      "inputs": [
        {
          "internalType": "address",
          "name": "owner",
          "type": "address"
        },
        {
          "internalType": "address",
          "name": "spender",
          "type": "address"
        }
      ],
      "name": "allowance",
      "outputs": [
        {
          "internalType": "uint256",
          "name": "",
          "type": "uint256"
        }
      ],
      "stateMutability": "view",
      "type": "function"
    },
    {
      "inputs": [
        {
          "internalType": "address",
          "name": "spender",
          "type": "address"
        },
        {
          "internalType": "uint256",
          "name": "value",
          "type": "uint256"
        }
      ],
      "name": "approve",
      "outputs": [
        {
          "internalType": "bool",
          "name": "",
          "type": "bool"
        }
      ],
      "stateMutability": "nonpayable",
      "type": "function"
    },
    {
      "inputs": [
        {
          "internalType": "address",
          "name": "account",
          "type": "address"
        }
      ],
      "name": "balanceOf",
      "outputs": [
        {
          "internalType": "uint256",
          "name": "",
          "type": "uint256"
        }
      ],
      "stateMutability": "view",
      "type": "function"
    },
    {
      "inputs": [
        {
          "internalType": "uint256",
          "name": "amount",
          "type": "uint256"
        }
      ],
      "name": "burn",
      "outputs": [],
      "stateMutability": "nonpayable",
      "type": "function"
    },
    {
      "inputs": [
        {
          "internalType": "address",
          "name": "account",
          "type": "address"
        },
        {
          "internalType": "uint256",
          "name": "amount",
          "type": "uint256"
        }
      ],
      "name": "burnFrom",
      "outputs": [],
      "stateMutability": "nonpayable",
      "type": "function"
    },
    {
      "inputs": [],
      "name": "decimals",
      "outputs": [
        {
          "internalType": "uint8",
          "name": "",
          "type": "uint8"
        }
      ],
      "stateMutability": "view",
      "type": "function"
    },
    {
      "inputs": [
        {
          "internalType": "address",
          "name": "to",
          "type": "address"
        },
        {
          "internalType": "uint256",
          "name": "amount",
          "type": "uint256"
        }
      ],
      "name": "mint",
      "outputs": [],
      "stateMutability": "nonpayable",
      "type": "function"
    },
    {
      "inputs": [],
      "name": "name",
      "outputs": [
        {
          "internalType": "string",
          "name": "",
          "type": "string"
        }
      ],
      "stateMutability": "view",
      "type": "function"
    },
    {
      "inputs": [],
      "name": "owner",
      "outputs": [
        {
          "internalType": "address",
          "name": "",
          "type": "address"
        }
      ],
      "stateMutability": "view",
      "type": "function"
    },
    {
      "inputs": [],
      "name": "renounceOwnership",
      "outputs": [],
      "stateMutability": "nonpayable",
      "type": "function"
    },
    {
      "inputs": [],
      "name": "symbol",
      "outputs": [
        {
          "internalType": "string",
          "name": "",
          "type": "string"
        }
      ],
      "stateMutability": "view",
      "type": "function"
    },
    {
      "inputs": [],
      "name": "totalSupply",
      "outputs": [
        {
          "internalType": "uint256",
          "name": "",
          "type": "uint256"
        }
      ],
      "stateMutability": "view",
      "type": "function"
    },
    {
      "inputs": [
        {
          "internalType": "address",
          "name": "to",
          "type": "address"
        },
        {
          "internalType": "uint256",
          "name": "value",
          "type": "uint256"
        }
      ],
      "name": "transfer",
      "outputs": [
        {
          "internalType": "bool",
          "name": "",
          "type": "bool"
        }
      ],
      "stateMutability": "nonpayable",
      "type": "function"
    },
    {
      "inputs": [
        {
          "internalType": "address",
          "name": "from",
          "type": "address"
        },
        {
          "internalType": "address",
          "name": "to",
          "type": "address"
        },
        {
          "internalType": "uint256",
          "name": "value",
          "type": "uint256"
        }
      ],
      "name": "transferFrom",
      "outputs": [
        {
          "internalType": "bool",
          "name": "",
          "type": "bool"
        }
      ],
      "stateMutability": "nonpayable",
      "type": "function"
    },
    {
      "inputs": [
        {
          "internalType": "address",
          "name": "newOwner",
          "type": "address"
        }
      ],
      "name": "transferOwnership",
      "outputs": [],
      "stateMutability": "nonpayable",
      "type": "function"
    },
    {
      "inputs": [],
      "name": "withdrawStuckBITS",
      "outputs": [],
      "stateMutability": "nonpayable",
      "type": "function"
    },
    {
      "inputs": [
        {
          "internalType": "contract IERC20",
          "name": "tokenContract",
          "type": "address"
        }
      ],
      "name": "withdrawStuckERC20",
      "outputs": [],
      "stateMutability": "nonpayable",
      "type": "function"
    }
  ],
  "bytecode": "0x608060405234801561001057600080fd5b5060405161246338038061246383398181016040528101906100329190610563565b806040518060400160405280600981526020017f42495453546f6b656e00000000000000000000000000000000000000000000008152506040518060400160405280600481526020017f424954530000000000000000000000000000000000000000000000000000000081525081600390816100ae91906107e0565b5080600490816100be91906107e0565b505050600073ffffffffffffffffffffffffffffffffffffffff168173ffffffffffffffffffffffffffffffffffffffff16036101335760006040517f1e4fbdf700000000000000000000000000000000000000000000000000000000815260040161012a91906108c1565b60405180910390fd5b6101428161018460201b60201c565b5061017e8161015561024a60201b60201c565b60ff16600a6101649190610a3e565b633b9aca006101739190610a89565b61025360201b60201c565b50610b60565b6000600560009054906101000a900473ffffffffffffffffffffffffffffffffffffffff16905081600560006101000a81548173ffffffffffffffffffffffffffffffffffffffff021916908373ffffffffffffffffffffffffffffffffffffffff1602179055508173ffffffffffffffffffffffffffffffffffffffff168173ffffffffffffffffffffffffffffffffffffffff167f8be0079c531659141344cd1fd0a4f28419497f9722a3daafe3b4186f6b6457e060405160405180910390a35050565b60006012905090565b600073ffffffffffffffffffffffffffffffffffffffff168273ffffffffffffffffffffffffffffffffffffffff16036102c55760006040517fec442f050000000000000000000000000000000000000000000000000000000081526004016102bc91906108c1565b60405180910390fd5b6102d7600083836102db60201b60201c565b5050565b600073ffffffffffffffffffffffffffffffffffffffff168373ffffffffffffffffffffffffffffffffffffffff160361032d5780600260008282546103219190610acb565b92505081905550610400565b60008060008573ffffffffffffffffffffffffffffffffffffffff1673ffffffffffffffffffffffffffffffffffffffff168152602001908152602001600020549050818110156103b9578381836040517fe450d38c0000000000000000000000000000000000000000000000000000000081526004016103b093929190610b0e565b60405180910390fd5b8181036000808673ffffffffffffffffffffffffffffffffffffffff1673ffffffffffffffffffffffffffffffffffffffff16815260200190815260200160002081905550505b600073ffffffffffffffffffffffffffffffffffffffff168273ffffffffffffffffffffffffffffffffffffffff16036104495780600260008282540392505081905550610496565b806000808473ffffffffffffffffffffffffffffffffffffffff1673ffffffffffffffffffffffffffffffffffffffff168152602001908152602001600020600082825401925050819055505b8173ffffffffffffffffffffffffffffffffffffffff168373ffffffffffffffffffffffffffffffffffffffff167fddf252ad1be2c89b69c2b068fc378daa952ba7f163c4a11628f55a4df523b3ef836040516104f39190610b45565b60405180910390a3505050565b600080fd5b600073ffffffffffffffffffffffffffffffffffffffff82169050919050565b600061053082610505565b9050919050565b61054081610525565b811461054b57600080fd5b50565b60008151905061055d81610537565b92915050565b60006020828403121561057957610578610500565b5b60006105878482850161054e565b91505092915050565b600081519050919050565b7f4e487b7100000000000000000000000000000000000000000000000000000000600052604160045260246000fd5b7f4e487b7100000000000000000000000000000000000000000000000000000000600052602260045260246000fd5b6000600282049050600182168061061157607f821691505b602082108103610624576106236105ca565b5b50919050565b60008190508160005260206000209050919050565b60006020601f8301049050919050565b600082821b905092915050565b60006008830261068c7fffffffffffffffffffffffffffffffffffffffffffffffffffffffffffffffff8261064f565b610696868361064f565b95508019841693508086168417925050509392505050565b6000819050919050565b6000819050919050565b60006106dd6106d86106d3846106ae565b6106b8565b6106ae565b9050919050565b6000819050919050565b6106f7836106c2565b61070b610703826106e4565b84845461065c565b825550505050565b600090565b610720610713565b61072b8184846106ee565b505050565b5b8181101561074f57610744600082610718565b600181019050610731565b5050565b601f821115610794576107658161062a565b61076e8461063f565b8101602085101561077d578190505b6107916107898561063f565b830182610730565b50505b505050565b600082821c905092915050565b60006107b760001984600802610799565b1980831691505092915050565b60006107d083836107a6565b9150826002028217905092915050565b6107e982610590565b67ffffffffffffffff8111156108025761080161059b565b5b61080c82546105f9565b610817828285610753565b600060209050601f83116001811461084a5760008415610838578287015190505b61084285826107c4565b8655506108aa565b601f1984166108588661062a565b60005b828110156108805784890151825560018201915060208501945060208101905061085b565b8683101561089d5784890151610899601f8916826107a6565b8355505b6001600288020188555050505b505050505050565b6108bb81610525565b82525050565b60006020820190506108d660008301846108b2565b92915050565b7f4e487b7100000000000000000000000000000000000000000000000000000000600052601160045260246000fd5b60008160011c9050919050565b6000808291508390505b60018511156109625780860481111561093e5761093d6108dc565b5b600185161561094d5780820291505b808102905061095b8561090b565b9450610922565b94509492505050565b60008261097b5760019050610a37565b816109895760009050610a37565b816001811461099f57600281146109a9576109d8565b6001915050610a37565b60ff8411156109bb576109ba6108dc565b5b8360020a9150848211156109d2576109d16108dc565b5b50610a37565b5060208310610133831016604e8410600b8410161715610a0d5782820a905083811115610a0857610a076108dc565b5b610a37565b610a1a8484846001610918565b92509050818404811115610a3157610a306108dc565b5b81810290505b9392505050565b6000610a49826106ae565b9150610a54836106ae565b9250610a817fffffffffffffffffffffffffffffffffffffffffffffffffffffffffffffffff848461096b565b905092915050565b6000610a94826106ae565b9150610a9f836106ae565b9250828202610aad816106ae565b91508282048414831517610ac457610ac36108dc565b5b5092915050565b6000610ad6826106ae565b9150610ae1836106ae565b9250828201905080821115610af957610af86108dc565b5b92915050565b610b08816106ae565b82525050565b6000606082019050610b2360008301866108b2565b610b306020830185610aff565b610b3d6040830184610aff565b949350505050565b6000602082019050610b5a6000830184610aff565b92915050565b6118f480610b6f6000396000f3fe608060405234801561001057600080fd5b506004361061010b5760003560e01c806342966c68116100a25780638da5cb5b116100715780638da5cb5b1461027e57806395d89b411461029c578063a9059cbb146102ba578063dd62ed3e146102ea578063f2fde38b1461031a5761010b565b806342966c681461020c57806370a0823114610228578063715018a61461025857806379cc6790146102625761010b565b806323b872dd116100de57806323b872dd14610186578063313ce567146101b65780633963510b146101d457806340c10f19146101f05761010b565b806306fdde0314610110578063095ea7b31461012e57806318160ddd1461015e578063197c5c161461017c575b600080fd5b610118610336565b60405161012591906111a4565b60405180910390f35b6101486004803603810190610143919061125f565b6103c8565b60405161015591906112ba565b60405180910390f35b6101666103eb565b60405161017391906112e4565b60405180910390f35b6101846103f5565b005b6101a0600480360381019061019b91906112ff565b610462565b6040516101ad91906112ba565b60405180910390f35b6101be610491565b6040516101cb919061136e565b60405180910390f35b6101ee60048036038101906101e991906113c7565b61049a565b005b61020a6004803603810190610205919061125f565b6106a0565b005b610226600480360381019061022191906113f4565b6106b6565b005b610242600480360381019061023d9190611421565b6106c3565b60405161024f91906112e4565b60405180910390f35b61026061070b565b005b61027c6004803603810190610277919061125f565b61071f565b005b610286610738565b604051610293919061145d565b60405180910390f35b6102a4610762565b6040516102b191906111a4565b60405180910390f35b6102d460048036038101906102cf919061125f565b6107f4565b6040516102e191906112ba565b60405180910390f35b61030460048036038101906102ff9190611478565b610817565b60405161031191906112e4565b60405180910390f35b610334600480360381019061032f9190611421565b61089e565b005b606060038054610345906114e7565b80601f0160208091040260200160405190810160405280929190818152602001828054610371906114e7565b80156103be5780601f10610393576101008083540402835291602001916103be565b820191906000526020600020905b8154815290600101906020018083116103a157829003601f168201915b5050505050905090565b6000806103d3610924565b90506103e081858561092c565b600191505092915050565b6000600254905090565b6103fd61093e565b6000610408306106c3565b90506000811161044d576040517f08c379a00000000000000000000000000000000000000000000000000000000081526004016104449061158a565b60405180910390fd5b61045f30610459610738565b836109c5565b50565b60008061046d610924565b905061047a858285610ab9565b6104858585856109c5565b60019150509392505050565b60006012905090565b6104a261093e565b600073ffffffffffffffffffffffffffffffffffffffff168173ffffffffffffffffffffffffffffffffffffffff1603610511576040517f08c379a00000000000000000000000000000000000000000000000000000000081526004016105089061161c565b60405180910390fd5b60008173ffffffffffffffffffffffffffffffffffffffff166370a08231306040518263ffffffff1660e01b815260040161054c919061145d565b602060405180830381865afa158015610569573d6000803e3d6000fd5b505050506040513d601f19601f8201168201806040525081019061058d9190611651565b9050600081116105d2576040517f08c379a00000000000000000000000000000000000000000000000000000000081526004016105c9906116f0565b60405180910390fd5b60008273ffffffffffffffffffffffffffffffffffffffff1663a9059cbb6105f8610738565b846040518363ffffffff1660e01b8152600401610616929190611710565b6020604051808303816000875af1158015610635573d6000803e3d6000fd5b505050506040513d601f19601f820116820180604052508101906106599190611765565b90508061069b576040517f08c379a000000000000000000000000000000000000000000000000000000000815260040161069290611804565b60405180910390fd5b505050565b6106a861093e565b6106b28282610b4e565b5050565b6106c03382610bd0565b50565b60008060008373ffffffffffffffffffffffffffffffffffffffff1673ffffffffffffffffffffffffffffffffffffffff168152602001908152602001600020549050919050565b61071361093e565b61071d6000610c52565b565b61072a823383610ab9565b6107348282610bd0565b5050565b6000600560009054906101000a900473ffffffffffffffffffffffffffffffffffffffff16905090565b606060048054610771906114e7565b80601f016020809104026020016040519081016040528092919081815260200182805461079d906114e7565b80156107ea5780601f106107bf576101008083540402835291602001916107ea565b820191906000526020600020905b8154815290600101906020018083116107cd57829003601f168201915b5050505050905090565b6000806107ff610924565b905061080c8185856109c5565b600191505092915050565b6000600160008473ffffffffffffffffffffffffffffffffffffffff1673ffffffffffffffffffffffffffffffffffffffff16815260200190815260200160002060008373ffffffffffffffffffffffffffffffffffffffff1673ffffffffffffffffffffffffffffffffffffffff16815260200190815260200160002054905092915050565b6108a661093e565b600073ffffffffffffffffffffffffffffffffffffffff168173ffffffffffffffffffffffffffffffffffffffff16036109185760006040517f1e4fbdf700000000000000000000000000000000000000000000000000000000815260040161090f919061145d565b60405180910390fd5b61092181610c52565b50565b600033905090565b6109398383836001610d18565b505050565b610946610924565b73ffffffffffffffffffffffffffffffffffffffff16610964610738565b73ffffffffffffffffffffffffffffffffffffffff16146109c357610987610924565b6040517f118cdaa70000000000000000000000000000000000000000000000000000000081526004016109ba919061145d565b60405180910390fd5b565b600073ffffffffffffffffffffffffffffffffffffffff168373ffffffffffffffffffffffffffffffffffffffff1603610a375760006040517f96c6fd1e000000000000000000000000000000000000000000000000000000008152600401610a2e919061145d565b60405180910390fd5b600073ffffffffffffffffffffffffffffffffffffffff168273ffffffffffffffffffffffffffffffffffffffff1603610aa95760006040517fec442f05000000000000000000000000000000000000000000000000000000008152600401610aa0919061145d565b60405180910390fd5b610ab4838383610eef565b505050565b6000610ac58484610817565b90507fffffffffffffffffffffffffffffffffffffffffffffffffffffffffffffffff811015610b485781811015610b38578281836040517ffb8f41b2000000000000000000000000000000000000000000000000000000008152600401610b2f93929190611824565b60405180910390fd5b610b4784848484036000610d18565b5b50505050565b600073ffffffffffffffffffffffffffffffffffffffff168273ffffffffffffffffffffffffffffffffffffffff1603610bc05760006040517fec442f05000000000000000000000000000000000000000000000000000000008152600401610bb7919061145d565b60405180910390fd5b610bcc60008383610eef565b5050565b600073ffffffffffffffffffffffffffffffffffffffff168273ffffffffffffffffffffffffffffffffffffffff1603610c425760006040517f96c6fd1e000000000000000000000000000000000000000000000000000000008152600401610c39919061145d565b60405180910390fd5b610c4e82600083610eef565b5050565b6000600560009054906101000a900473ffffffffffffffffffffffffffffffffffffffff16905081600560006101000a81548173ffffffffffffffffffffffffffffffffffffffff021916908373ffffffffffffffffffffffffffffffffffffffff1602179055508173ffffffffffffffffffffffffffffffffffffffff168173ffffffffffffffffffffffffffffffffffffffff167f8be0079c531659141344cd1fd0a4f28419497f9722a3daafe3b4186f6b6457e060405160405180910390a35050565b600073ffffffffffffffffffffffffffffffffffffffff168473ffffffffffffffffffffffffffffffffffffffff1603610d8a5760006040517fe602df05000000000000000000000000000000000000000000000000000000008152600401610d81919061145d565b60405180910390fd5b600073ffffffffffffffffffffffffffffffffffffffff168373ffffffffffffffffffffffffffffffffffffffff1603610dfc5760006040517f94280d62000000000000000000000000000000000000000000000000000000008152600401610df3919061145d565b60405180910390fd5b81600160008673ffffffffffffffffffffffffffffffffffffffff1673ffffffffffffffffffffffffffffffffffffffff16815260200190815260200160002060008573ffffffffffffffffffffffffffffffffffffffff1673ffffffffffffffffffffffffffffffffffffffff168152602001908152602001600020819055508015610ee9578273ffffffffffffffffffffffffffffffffffffffff168473ffffffffffffffffffffffffffffffffffffffff167f8c5be1e5ebec7d5bd14f71427d1e84f3dd0314c0f7b2291e5b200ac8c7c3b92584604051610ee091906112e4565b60405180910390a35b50505050565b600073ffffffffffffffffffffffffffffffffffffffff168373ffffffffffffffffffffffffffffffffffffffff1603610f41578060026000828254610f35919061188a565b92505081905550611014565b60008060008573ffffffffffffffffffffffffffffffffffffffff1673ffffffffffffffffffffffffffffffffffffffff16815260200190815260200160002054905081811015610fcd578381836040517fe450d38c000000000000000000000000000000000000000000000000000000008152600401610fc493929190611824565b60405180910390fd5b8181036000808673ffffffffffffffffffffffffffffffffffffffff1673ffffffffffffffffffffffffffffffffffffffff16815260200190815260200160002081905550505b600073ffffffffffffffffffffffffffffffffffffffff168273ffffffffffffffffffffffffffffffffffffffff160361105d57806002600082825403925050819055506110aa565b806000808473ffffffffffffffffffffffffffffffffffffffff1673ffffffffffffffffffffffffffffffffffffffff168152602001908152602001600020600082825401925050819055505b8173ffffffffffffffffffffffffffffffffffffffff168373ffffffffffffffffffffffffffffffffffffffff167fddf252ad1be2c89b69c2b068fc378daa952ba7f163c4a11628f55a4df523b3ef8360405161110791906112e4565b60405180910390a3505050565b600081519050919050565b600082825260208201905092915050565b60005b8381101561114e578082015181840152602081019050611133565b60008484015250505050565b6000601f19601f8301169050919050565b600061117682611114565b611180818561111f565b9350611190818560208601611130565b6111998161115a565b840191505092915050565b600060208201905081810360008301526111be818461116b565b905092915050565b600080fd5b600073ffffffffffffffffffffffffffffffffffffffff82169050919050565b60006111f6826111cb565b9050919050565b611206816111eb565b811461121157600080fd5b50565b600081359050611223816111fd565b92915050565b6000819050919050565b61123c81611229565b811461124757600080fd5b50565b60008135905061125981611233565b92915050565b60008060408385031215611276576112756111c6565b5b600061128485828601611214565b92505060206112958582860161124a565b9150509250929050565b60008115159050919050565b6112b48161129f565b82525050565b60006020820190506112cf60008301846112ab565b92915050565b6112de81611229565b82525050565b60006020820190506112f960008301846112d5565b92915050565b600080600060608486031215611318576113176111c6565b5b600061132686828701611214565b935050602061133786828701611214565b92505060406113488682870161124a565b9150509250925092565b600060ff82169050919050565b61136881611352565b82525050565b6000602082019050611383600083018461135f565b92915050565b6000611394826111eb565b9050919050565b6113a481611389565b81146113af57600080fd5b50565b6000813590506113c18161139b565b92915050565b6000602082840312156113dd576113dc6111c6565b5b60006113eb848285016113b2565b91505092915050565b60006020828403121561140a576114096111c6565b5b60006114188482850161124a565b91505092915050565b600060208284031215611437576114366111c6565b5b600061144584828501611214565b91505092915050565b611457816111eb565b82525050565b6000602082019050611472600083018461144e565b92915050565b6000806040838503121561148f5761148e6111c6565b5b600061149d85828601611214565b92505060206114ae85828601611214565b9150509250929050565b7f4e487b7100000000000000000000000000000000000000000000000000000000600052602260045260246000fd5b600060028204905060018216806114ff57607f821691505b602082108103611512576115116114b8565b5b50919050565b7f42495453546f6b656e3a204e6f2042495453546f6b656e7320746f207769746860008201527f647261772066726f6d20636f6e74726163740000000000000000000000000000602082015250565b600061157460328361111f565b915061157f82611518565b604082019050919050565b600060208201905081810360008301526115a381611567565b9050919050565b7f42495453546f6b656e3a20546f6b656e20616464726573732063616e6e6f742060008201527f6265207a65726f00000000000000000000000000000000000000000000000000602082015250565b600061160660278361111f565b9150611611826115aa565b604082019050919050565b60006020820190508181036000830152611635816115f9565b9050919050565b60008151905061164b81611233565b92915050565b600060208284031215611667576116666111c6565b5b60006116758482850161163c565b91505092915050565b7f42495453546f6b656e3a204e6f20746f6b656e73206f6620746869732074797060008201527f6520746f2077697468647261772066726f6d20636f6e74726163740000000000602082015250565b60006116da603b8361111f565b91506116e58261167e565b604082019050919050565b60006020820190508181036000830152611709816116cd565b9050919050565b6000604082019050611725600083018561144e565b61173260208301846112d5565b9392505050565b6117428161129f565b811461174d57600080fd5b50565b60008151905061175f81611739565b92915050565b60006020828403121561177b5761177a6111c6565b5b600061178984828501611750565b91505092915050565b7f42495453546f6b656e3a20455243323020746f6b656e207472616e736665722060008201527f6661696c65640000000000000000000000000000000000000000000000000000602082015250565b60006117ee60268361111f565b91506117f982611792565b604082019050919050565b6000602082019050818103600083015261181d816117e1565b9050919050565b6000606082019050611839600083018661144e565b61184660208301856112d5565b61185360408301846112d5565b949350505050565b7f4e487b7100000000000000000000000000000000000000000000000000000000600052601160045260246000fd5b600061189582611229565b91506118a083611229565b92508282019050808211156118b8576118b761185b565b5b9291505056fea2646970667358221220f292a81aceb8a21ca90fbcbddceb6d379c93c07d95d7d21b4088f4a6afcb69c864736f6c634300081c0033",
  "linkReferences": {},
  "deployedLinkReferences": {}
}